{
  "_format": "hh-sol-artifact-1",
  "contractName": "WavePortal",
  "sourceName": "contracts/WavePortal.sol",
  "abi": [
    {
      "inputs": [],
      "stateMutability": "payable",
      "type": "constructor"
    },
    {
      "anonymous": false,
      "inputs": [
        {
          "indexed": true,
          "internalType": "address",
          "name": "from",
          "type": "address"
        },
        {
          "indexed": false,
          "internalType": "uint256",
          "name": "timestamp",
          "type": "uint256"
        },
        {
          "indexed": false,
          "internalType": "string",
          "name": "message",
          "type": "string"
        }
      ],
      "name": "NewWave",
      "type": "event"
    },
    {
      "inputs": [],
      "name": "getAllWaves",
      "outputs": [
        {
          "components": [
            {
              "internalType": "address",
              "name": "waver",
              "type": "address"
            },
            {
              "internalType": "string",
              "name": "message",
              "type": "string"
            },
            {
              "internalType": "uint256",
              "name": "timestamp",
              "type": "uint256"
            },
            {
              "internalType": "uint256",
              "name": "seed",
              "type": "uint256"
            }
          ],
          "internalType": "struct WavePortal.Wave[]",
          "name": "",
          "type": "tuple[]"
        }
      ],
      "stateMutability": "view",
      "type": "function"
    },
    {
      "inputs": [],
      "name": "getTotalWaves",
      "outputs": [
        {
          "internalType": "uint256",
          "name": "",
          "type": "uint256"
        }
      ],
      "stateMutability": "view",
      "type": "function"
    },
    {
      "inputs": [
        {
          "internalType": "address",
          "name": "",
          "type": "address"
        }
      ],
      "name": "lastWavedAt",
      "outputs": [
        {
          "internalType": "uint256",
          "name": "",
          "type": "uint256"
        }
      ],
      "stateMutability": "view",
      "type": "function"
    },
    {
      "inputs": [
        {
          "internalType": "string",
          "name": "_message",
          "type": "string"
        }
      ],
      "name": "wave",
      "outputs": [],
      "stateMutability": "nonpayable",
      "type": "function"
    }
  ],
  "bytecode": "0x60806040526200004a6040518060400160405280601f81526020017f48657265206973206d7920666972737420736d61727420636f6e7472616374008152506200007260201b60201c565b606444426200005a9190620001b8565b62000066919062000222565b60018190555062000347565b6200011281604051602401620000899190620002f4565b6040516020818303038152906040527f41304fac000000000000000000000000000000000000000000000000000000007bffffffffffffffffffffffffffffffffffffffffffffffffffffffff19166020820180517bffffffffffffffffffffffffffffffffffffffffffffffffffffffff83818316178352505050506200011560201b60201c565b50565b6200013b81620001366200013e60201b620006a0176200015f60201b60201c565b60201c565b50565b60006a636f6e736f6c652e6c6f679050600080835160208501845afa505050565b6200017360201b620008bd17819050919050565b6200017d62000318565b565b6000819050919050565b7f4e487b7100000000000000000000000000000000000000000000000000000000600052601160045260246000fd5b6000620001c5826200017f565b9150620001d2836200017f565b9250828201905080821115620001ed57620001ec62000189565b5b92915050565b7f4e487b7100000000000000000000000000000000000000000000000000000000600052601260045260246000fd5b60006200022f826200017f565b91506200023c836200017f565b9250826200024f576200024e620001f3565b5b828206905092915050565b600081519050919050565b600082825260208201905092915050565b60005b838110156200029657808201518184015260208101905062000279565b60008484015250505050565b6000601f19601f8301169050919050565b6000620002c0826200025a565b620002cc818562000265565b9350620002de81856020860162000276565b620002e981620002a2565b840191505092915050565b60006020820190508181036000830152620003108184620002b3565b905092915050565b7f4e487b7100000000000000000000000000000000000000000000000000000000600052605160045260246000fd5b61141780620003576000396000f3fe608060405234801561001057600080fd5b506004361061004c5760003560e01c8063449d46c0146100515780639a2cdc081461006d578063a42a46631461008b578063bd43a908146100bb575b600080fd5b61006b60048036038101906100669190610a21565b6100d9565b005b610075610524565b6040516100829190610a83565b60405180910390f35b6100a560048036038101906100a09190610afc565b61052d565b6040516100b29190610a83565b60405180910390f35b6100c3610545565b6040516100d09190610ceb565b60405180910390f35b42610384600360003373ffffffffffffffffffffffffffffffffffffffff1673ffffffffffffffffffffffffffffffffffffffff168152602001908152602001600020546101279190610d3c565b10610167576040517f08c379a000000000000000000000000000000000000000000000000000000000815260040161015e90610dcd565b60405180910390fd5b42600360003373ffffffffffffffffffffffffffffffffffffffff1673ffffffffffffffffffffffffffffffffffffffff1681526020019081526020016000208190555060016000808282546101bd9190610d3c565b925050819055506102046040518060400160405280601681526020017f257320776176656420772f206d6573736167652025730000000000000000000081525033836106c1565b606460015442446102159190610d3c565b61021f9190610d3c565b6102299190610e1c565b600181905550600260405180608001604052803373ffffffffffffffffffffffffffffffffffffffff168152602001838152602001428152602001600154815250908060018154018082558091505060019003906000526020600020906004020160009091909190915060008201518160000160006101000a81548173ffffffffffffffffffffffffffffffffffffffff021916908373ffffffffffffffffffffffffffffffffffffffff16021790555060208201518160010190816102ef9190611059565b50604082015181600201556060820151816003015550506103476040518060400160405280601681526020017f52616e646f6d20232067656e6572617465643a20256400000000000000000000815250600154610760565b603260015411610491576103906040518060400160405280600781526020017f257320776f6e2100000000000000000000000000000000000000000000000000815250336107fc565b6000655af3107a40009050478111156103de576040517f08c379a00000000000000000000000000000000000000000000000000000000081526004016103d59061119d565b60405180910390fd5b60003373ffffffffffffffffffffffffffffffffffffffff1682604051610404906111ee565b60006040518083038185875af1925050503d8060008114610441576040519150601f19603f3d011682016040523d82523d6000602084013e610446565b606091505b505090508061048a576040517f08c379a000000000000000000000000000000000000000000000000000000000815260040161048190611275565b60405180910390fd5b50506104d1565b6104d06040518060400160405280600e81526020017f257320646964206e6f742077696e000000000000000000000000000000000000815250336107fc565b5b3373ffffffffffffffffffffffffffffffffffffffff167f5f7e16dc676677766a70e9c5628aa6c54ddb8b6e5188e2ae1e1f17f1ffbea71642836040516105199291906112ce565b60405180910390a250565b60008054905090565b60036020528060005260406000206000915090505481565b60606002805480602002602001604051908101604052809291908181526020016000905b8282101561069757838290600052602060002090600402016040518060800160405290816000820160009054906101000a900473ffffffffffffffffffffffffffffffffffffffff1673ffffffffffffffffffffffffffffffffffffffff1673ffffffffffffffffffffffffffffffffffffffff1681526020016001820180546105f290610e7c565b80601f016020809104026020016040519081016040528092919081815260200182805461061e90610e7c565b801561066b5780601f106106405761010080835404028352916020019161066b565b820191906000526020600020905b81548152906001019060200180831161064e57829003601f168201915b505050505081526020016002820154815260200160038201548152505081526020019060010190610569565b50505050905090565b60006a636f6e736f6c652e6c6f679050600080835160208501845afa505050565b61075b8383836040516024016106d99392919061130d565b6040516020818303038152906040527fe0e9ad4f000000000000000000000000000000000000000000000000000000007bffffffffffffffffffffffffffffffffffffffffffffffffffffffff19166020820180517bffffffffffffffffffffffffffffffffffffffffffffffffffffffff8381831617835250505050610898565b505050565b6107f88282604051602401610776929190611352565b6040516020818303038152906040527fb60e72cc000000000000000000000000000000000000000000000000000000007bffffffffffffffffffffffffffffffffffffffffffffffffffffffff19166020820180517bffffffffffffffffffffffffffffffffffffffffffffffffffffffff8381831617835250505050610898565b5050565b6108948282604051602401610812929190611382565b6040516020818303038152906040527f319af333000000000000000000000000000000000000000000000000000000007bffffffffffffffffffffffffffffffffffffffffffffffffffffffff19166020820180517bffffffffffffffffffffffffffffffffffffffffffffffffffffffff8381831617835250505050610898565b5050565b6108af816108a76106a06108b2565b63ffffffff16565b50565b6108bd819050919050565b6108c56113b2565b565b6000604051905090565b600080fd5b600080fd5b600080fd5b600080fd5b6000601f19601f8301169050919050565b7f4e487b7100000000000000000000000000000000000000000000000000000000600052604160045260246000fd5b61092e826108e5565b810181811067ffffffffffffffff8211171561094d5761094c6108f6565b5b80604052505050565b60006109606108c7565b905061096c8282610925565b919050565b600067ffffffffffffffff82111561098c5761098b6108f6565b5b610995826108e5565b9050602081019050919050565b82818337600083830152505050565b60006109c46109bf84610971565b610956565b9050828152602081018484840111156109e0576109df6108e0565b5b6109eb8482856109a2565b509392505050565b600082601f830112610a0857610a076108db565b5b8135610a188482602086016109b1565b91505092915050565b600060208284031215610a3757610a366108d1565b5b600082013567ffffffffffffffff811115610a5557610a546108d6565b5b610a61848285016109f3565b91505092915050565b6000819050919050565b610a7d81610a6a565b82525050565b6000602082019050610a986000830184610a74565b92915050565b600073ffffffffffffffffffffffffffffffffffffffff82169050919050565b6000610ac982610a9e565b9050919050565b610ad981610abe565b8114610ae457600080fd5b50565b600081359050610af681610ad0565b92915050565b600060208284031215610b1257610b116108d1565b5b6000610b2084828501610ae7565b91505092915050565b600081519050919050565b600082825260208201905092915050565b6000819050602082019050919050565b610b5e81610abe565b82525050565b600081519050919050565b600082825260208201905092915050565b60005b83811015610b9e578082015181840152602081019050610b83565b60008484015250505050565b6000610bb582610b64565b610bbf8185610b6f565b9350610bcf818560208601610b80565b610bd8816108e5565b840191505092915050565b610bec81610a6a565b82525050565b6000608083016000830151610c0a6000860182610b55565b5060208301518482036020860152610c228282610baa565b9150506040830151610c376040860182610be3565b506060830151610c4a6060860182610be3565b508091505092915050565b6000610c618383610bf2565b905092915050565b6000602082019050919050565b6000610c8182610b29565b610c8b8185610b34565b935083602082028501610c9d85610b45565b8060005b85811015610cd95784840389528151610cba8582610c55565b9450610cc583610c69565b925060208a01995050600181019050610ca1565b50829750879550505050505092915050565b60006020820190508181036000830152610d058184610c76565b905092915050565b7f4e487b7100000000000000000000000000000000000000000000000000000000600052601160045260246000fd5b6000610d4782610a6a565b9150610d5283610a6a565b9250828201905080821115610d6a57610d69610d0d565b5b92915050565b600082825260208201905092915050565b7f576169742031356d000000000000000000000000000000000000000000000000600082015250565b6000610db7600883610d70565b9150610dc282610d81565b602082019050919050565b60006020820190508181036000830152610de681610daa565b9050919050565b7f4e487b7100000000000000000000000000000000000000000000000000000000600052601260045260246000fd5b6000610e2782610a6a565b9150610e3283610a6a565b925082610e4257610e41610ded565b5b828206905092915050565b7f4e487b7100000000000000000000000000000000000000000000000000000000600052602260045260246000fd5b60006002820490506001821680610e9457607f821691505b602082108103610ea757610ea6610e4d565b5b50919050565b60008190508160005260206000209050919050565b60006020601f8301049050919050565b600082821b905092915050565b600060088302610f0f7fffffffffffffffffffffffffffffffffffffffffffffffffffffffffffffffff82610ed2565b610f198683610ed2565b95508019841693508086168417925050509392505050565b6000819050919050565b6000610f56610f51610f4c84610a6a565b610f31565b610a6a565b9050919050565b6000819050919050565b610f7083610f3b565b610f84610f7c82610f5d565b848454610edf565b825550505050565b600090565b610f99610f8c565b610fa4818484610f67565b505050565b5b81811015610fc857610fbd600082610f91565b600181019050610faa565b5050565b601f82111561100d57610fde81610ead565b610fe784610ec2565b81016020851015610ff6578190505b61100a61100285610ec2565b830182610fa9565b50505b505050565b600082821c905092915050565b600061103060001984600802611012565b1980831691505092915050565b6000611049838361101f565b9150826002028217905092915050565b61106282610b64565b67ffffffffffffffff81111561107b5761107a6108f6565b5b6110858254610e7c565b611090828285610fcc565b600060209050601f8311600181146110c357600084156110b1578287015190505b6110bb858261103d565b865550611123565b601f1984166110d186610ead565b60005b828110156110f9578489015182556001820191506020850194506020810190506110d4565b868310156111165784890151611112601f89168261101f565b8355505b6001600288020188555050505b505050505050565b7f547279696e6720746f207769746864726177206d6f7265206d6f6e657920746860008201527f616e2074686520636f6e7472616374206861732e000000000000000000000000602082015250565b6000611187603483610d70565b91506111928261112b565b604082019050919050565b600060208201905081810360008301526111b68161117a565b9050919050565b600081905092915050565b50565b60006111d86000836111bd565b91506111e3826111c8565b600082019050919050565b60006111f9826111cb565b9150819050919050565b7f4661696c656420746f207769746864726177206d6f6e65792066726f6d20636f60008201527f6e74726163740000000000000000000000000000000000000000000000000000602082015250565b600061125f602683610d70565b915061126a82611203565b604082019050919050565b6000602082019050818103600083015261128e81611252565b9050919050565b60006112a082610b64565b6112aa8185610d70565b93506112ba818560208601610b80565b6112c3816108e5565b840191505092915050565b60006040820190506112e36000830185610a74565b81810360208301526112f58184611295565b90509392505050565b61130781610abe565b82525050565b600060608201905081810360008301526113278186611295565b905061133660208301856112fe565b81810360408301526113488184611295565b9050949350505050565b6000604082019050818103600083015261136c8185611295565b905061137b6020830184610a74565b9392505050565b6000604082019050818103600083015261139c8185611295565b90506113ab60208301846112fe565b9392505050565b7f4e487b7100000000000000000000000000000000000000000000000000000000600052605160045260246000fdfea2646970667358221220644bd6fe558bc83d0a9a5e47f3e5780ff8cbca7bb5762c2c765ae445de1d8dc764736f6c63430008130033",
  "linkReferences": {},
  "deployedLinkReferences": {}
}